{
  "address": "0x9fE46736679d2D9a65F0992F2272dE9f3c7fa6e0",
  "abi": [
    {
      "inputs": [
        {
          "internalType": "address",
          "name": "_address",
          "type": "address"
        }
      ],
      "name": "balance",
      "outputs": [
        {
          "internalType": "uint256",
          "name": "",
          "type": "uint256"
        }
      ],
      "stateMutability": "view",
      "type": "function"
    },
    {
      "inputs": [],
      "name": "bid",
      "outputs": [],
      "stateMutability": "payable",
      "type": "function"
    },
    {
      "inputs": [],
      "name": "getHighestBid",
      "outputs": [
        {
          "internalType": "uint256",
          "name": "",
          "type": "uint256"
        }
      ],
      "stateMutability": "view",
      "type": "function"
    },
    {
      "inputs": [],
      "name": "getHighestBidder",
      "outputs": [
        {
          "internalType": "address",
          "name": "",
          "type": "address"
        }
      ],
      "stateMutability": "view",
      "type": "function"
    }
  ],
  "transactionHash": "0xf38edd5d044cf5cc05d1dc9ff39f6d977ca965aabe0b18942a70d36198b7132b",
  "args": [],
  "numDeployments": 1,
  "solcInputHash": "ce322456de340d691c6736d3b8405bcd",
  "bytecode": "0x608060405234801561001057600080fd5b506104a3806100206000396000f3fe60806040526004361061003e5760003560e01c80623495a4146100435780631998aeef1461006e5780634979440a14610078578063e3d670d7146100a3575b600080fd5b34801561004f57600080fd5b506100586100e0565b60405161006591906102b1565b60405180910390f35b61007661010a565b005b34801561008457600080fd5b5061008d61021e565b60405161009a91906102e5565b60405180910390f35b3480156100af57600080fd5b506100ca60048036038101906100c59190610331565b610228565b6040516100d791906102e5565b60405180910390f35b6000600260009054906101000a900473ffffffffffffffffffffffffffffffffffffffff16905090565b6000341161014d576040517f08c379a0000000000000000000000000000000000000000000000000000000008152600401610144906103bb565b60405180910390fd5b6001543411610191576040517f08c379a00000000000000000000000000000000000000000000000000000000081526004016101889061044d565b60405180910390fd5b346000803373ffffffffffffffffffffffffffffffffffffffff1673ffffffffffffffffffffffffffffffffffffffff168152602001908152602001600020819055503460018190555033600260006101000a81548173ffffffffffffffffffffffffffffffffffffffff021916908373ffffffffffffffffffffffffffffffffffffffff160217905550565b6000600154905090565b60008060008373ffffffffffffffffffffffffffffffffffffffff1673ffffffffffffffffffffffffffffffffffffffff168152602001908152602001600020549050919050565b600073ffffffffffffffffffffffffffffffffffffffff82169050919050565b600061029b82610270565b9050919050565b6102ab81610290565b82525050565b60006020820190506102c660008301846102a2565b92915050565b6000819050919050565b6102df816102cc565b82525050565b60006020820190506102fa60008301846102d6565b92915050565b600080fd5b61030e81610290565b811461031957600080fd5b50565b60008135905061032b81610305565b92915050565b60006020828403121561034757610346610300565b5b60006103558482850161031c565b91505092915050565b600082825260208201905092915050565b7f42696420616d6f756e742063616e6e6f74206265207a65726f21000000000000600082015250565b60006103a5601a8361035e565b91506103b08261036f565b602082019050919050565b600060208201905081810360008301526103d481610398565b9050919050565b7f42696420616d6f756e74206973206c657373207468616e20426173652042696460008201527f2050726963652100000000000000000000000000000000000000000000000000602082015250565b600061043760278361035e565b9150610442826103db565b604082019050919050565b600060208201905081810360008301526104668161042a565b905091905056fea264697066735822122025e123481a1fd639d3c694b512a635d578a161828becfe89b7c71cdac9dbc84764736f6c63430008080033",
  "devdoc": {
    "kind": "dev",
    "methods": {},
    "version": 1
  },
  "userdoc": {
    "kind": "user",
    "methods": {},
    "version": 1
  },
  "storageLayout": {
    "storage": [
      {
        "astId": 2831,
        "contract": "contracts/Auction.sol:Auction",
        "label": "bidders",
        "offset": 0,
        "slot": "0",
        "type": "t_mapping(t_address,t_uint256)"
      },
      {
        "astId": 2833,
        "contract": "contracts/Auction.sol:Auction",
        "label": "highestBid",
        "offset": 0,
        "slot": "1",
        "type": "t_uint256"
      },
      {
        "astId": 2835,
        "contract": "contracts/Auction.sol:Auction",
        "label": "highestBidder",
        "offset": 0,
        "slot": "2",
        "type": "t_address"
      }
    ],
    "types": {
      "t_address": {
        "encoding": "inplace",
        "label": "address",
        "numberOfBytes": "20"
      },
      "t_mapping(t_address,t_uint256)": {
        "encoding": "mapping",
        "key": "t_address",
        "label": "mapping(address => uint256)",
        "numberOfBytes": "32",
        "value": "t_uint256"
      },
      "t_uint256": {
        "encoding": "inplace",
        "label": "uint256",
        "numberOfBytes": "32"
      }
    }
  }
}