{
  "address": "0x68B1D87F95878fE05B998F19b66F4baba5De1aed",
  "abi": [
    {
      "inputs": [],
      "stateMutability": "nonpayable",
      "type": "constructor"
    },
    {
      "inputs": [
        {
          "internalType": "uint256",
          "name": "tokenId",
          "type": "uint256"
        }
      ],
      "name": "Marketplace__AlreadyListed",
      "type": "error"
    },
    {
      "inputs": [
        {
          "internalType": "uint256",
          "name": "tokenId",
          "type": "uint256"
        }
      ],
      "name": "Marketplace__AlreadyOnAuction",
      "type": "error"
    },
    {
      "inputs": [],
      "name": "Marketplace__NotEnoughMoneyToWithdraw",
      "type": "error"
    },
    {
      "inputs": [
        {
          "internalType": "uint256",
          "name": "tokenId",
          "type": "uint256"
        }
      ],
      "name": "Marketplace__NotListed",
      "type": "error"
    },
    {
      "inputs": [
        {
          "internalType": "uint256",
          "name": "tokenId",
          "type": "uint256"
        }
      ],
      "name": "Marketplace__NotOnAuction",
      "type": "error"
    },
    {
      "inputs": [
        {
          "internalType": "uint256",
          "name": "tokenId",
          "type": "uint256"
        },
        {
          "internalType": "address",
          "name": "user",
          "type": "address"
        }
      ],
      "name": "Marketplace__NotOwner",
      "type": "error"
    },
    {
      "inputs": [
        {
          "internalType": "uint256",
          "name": "lastBid",
          "type": "uint256"
        },
        {
          "internalType": "uint256",
          "name": "bid",
          "type": "uint256"
        }
      ],
      "name": "Marketplace__NotValidBid",
      "type": "error"
    },
    {
      "inputs": [
        {
          "internalType": "uint256",
          "name": "currTime",
          "type": "uint256"
        },
        {
          "internalType": "uint256",
          "name": "endTime",
          "type": "uint256"
        }
      ],
      "name": "Marketplace__NotValidEndTime",
      "type": "error"
    },
    {
      "inputs": [
        {
          "internalType": "uint256",
          "name": "price",
          "type": "uint256"
        }
      ],
      "name": "Marketplace__NotValidPrice",
      "type": "error"
    },
    {
      "inputs": [
        {
          "internalType": "uint256",
          "name": "tokenId",
          "type": "uint256"
        }
      ],
      "name": "Marketplace__TokenDoesNotExist",
      "type": "error"
    },
    {
      "anonymous": false,
      "inputs": [
        {
          "indexed": true,
          "internalType": "address",
          "name": "owner",
          "type": "address"
        },
        {
          "indexed": true,
          "internalType": "address",
          "name": "approved",
          "type": "address"
        },
        {
          "indexed": true,
          "internalType": "uint256",
          "name": "tokenId",
          "type": "uint256"
        }
      ],
      "name": "Approval",
      "type": "event"
    },
    {
      "anonymous": false,
      "inputs": [
        {
          "indexed": true,
          "internalType": "address",
          "name": "owner",
          "type": "address"
        },
        {
          "indexed": true,
          "internalType": "address",
          "name": "operator",
          "type": "address"
        },
        {
          "indexed": false,
          "internalType": "bool",
          "name": "approved",
          "type": "bool"
        }
      ],
      "name": "ApprovalForAll",
      "type": "event"
    },
    {
      "anonymous": false,
      "inputs": [
        {
          "indexed": true,
          "internalType": "address",
          "name": "from",
          "type": "address"
        },
        {
          "indexed": true,
          "internalType": "address",
          "name": "to",
          "type": "address"
        },
        {
          "indexed": true,
          "internalType": "uint256",
          "name": "tokenId",
          "type": "uint256"
        }
      ],
      "name": "Transfer",
      "type": "event"
    },
    {
      "inputs": [
        {
          "internalType": "address",
          "name": "to",
          "type": "address"
        },
        {
          "internalType": "uint256",
          "name": "tokenId",
          "type": "uint256"
        }
      ],
      "name": "approve",
      "outputs": [],
      "stateMutability": "nonpayable",
      "type": "function"
    },
    {
      "inputs": [
        {
          "internalType": "address",
          "name": "owner",
          "type": "address"
        }
      ],
      "name": "balanceOf",
      "outputs": [
        {
          "internalType": "uint256",
          "name": "",
          "type": "uint256"
        }
      ],
      "stateMutability": "view",
      "type": "function"
    },
    {
      "inputs": [
        {
          "internalType": "uint256",
          "name": "tokenId",
          "type": "uint256"
        }
      ],
      "name": "bid",
      "outputs": [],
      "stateMutability": "payable",
      "type": "function"
    },
    {
      "inputs": [
        {
          "internalType": "uint256",
          "name": "tokenId",
          "type": "uint256"
        }
      ],
      "name": "buyItem",
      "outputs": [],
      "stateMutability": "payable",
      "type": "function"
    },
    {
      "inputs": [
        {
          "internalType": "uint256",
          "name": "tokenId",
          "type": "uint256"
        }
      ],
      "name": "cancelListing",
      "outputs": [],
      "stateMutability": "nonpayable",
      "type": "function"
    },
    {
      "inputs": [
        {
          "internalType": "bytes",
          "name": "",
          "type": "bytes"
        }
      ],
      "name": "checkUpkeep",
      "outputs": [
        {
          "internalType": "bool",
          "name": "upkeepNeeded",
          "type": "bool"
        },
        {
          "internalType": "bytes",
          "name": "performData",
          "type": "bytes"
        }
      ],
      "stateMutability": "view",
      "type": "function"
    },
    {
      "inputs": [
        {
          "internalType": "uint256",
          "name": "tokenId",
          "type": "uint256"
        }
      ],
      "name": "getApproved",
      "outputs": [
        {
          "internalType": "address",
          "name": "",
          "type": "address"
        }
      ],
      "stateMutability": "view",
      "type": "function"
    },
    {
      "inputs": [
        {
          "internalType": "uint256",
          "name": "tokenId",
          "type": "uint256"
        }
      ],
      "name": "getBidders",
      "outputs": [
        {
          "components": [
            {
              "internalType": "address",
              "name": "bidderAddress",
              "type": "address"
            },
            {
              "internalType": "uint256",
              "name": "bid",
              "type": "uint256"
            }
          ],
          "internalType": "struct Marketplace.Bidder[]",
          "name": "",
          "type": "tuple[]"
        }
      ],
      "stateMutability": "view",
      "type": "function"
    },
    {
      "inputs": [],
      "name": "getCurrentTokenId",
      "outputs": [
        {
          "internalType": "uint256",
          "name": "",
          "type": "uint256"
        }
      ],
      "stateMutability": "view",
      "type": "function"
    },
    {
      "inputs": [
        {
          "internalType": "uint256",
          "name": "tokenId",
          "type": "uint256"
        }
      ],
      "name": "getItem",
      "outputs": [
        {
          "components": [
            {
              "internalType": "string",
              "name": "status",
              "type": "string"
            },
            {
              "internalType": "uint256",
              "name": "tokenId",
              "type": "uint256"
            },
            {
              "internalType": "address",
              "name": "owner",
              "type": "address"
            },
            {
              "internalType": "uint256",
              "name": "listingPrice",
              "type": "uint256"
            },
            {
              "internalType": "uint256",
              "name": "basePrice",
              "type": "uint256"
            },
            {
              "internalType": "uint256",
              "name": "endTime",
              "type": "uint256"
            }
          ],
          "internalType": "struct Marketplace.Item",
          "name": "",
          "type": "tuple"
        }
      ],
      "stateMutability": "view",
      "type": "function"
    },
    {
      "inputs": [],
      "name": "getItems",
      "outputs": [
        {
          "components": [
            {
              "internalType": "string",
              "name": "status",
              "type": "string"
            },
            {
              "internalType": "uint256",
              "name": "tokenId",
              "type": "uint256"
            },
            {
              "internalType": "address",
              "name": "owner",
              "type": "address"
            },
            {
              "internalType": "uint256",
              "name": "listingPrice",
              "type": "uint256"
            },
            {
              "internalType": "uint256",
              "name": "basePrice",
              "type": "uint256"
            },
            {
              "internalType": "uint256",
              "name": "endTime",
              "type": "uint256"
            }
          ],
          "internalType": "struct Marketplace.Item[]",
          "name": "",
          "type": "tuple[]"
        }
      ],
      "stateMutability": "view",
      "type": "function"
    },
    {
      "inputs": [
        {
          "internalType": "address",
          "name": "seller",
          "type": "address"
        }
      ],
      "name": "getProceeds",
      "outputs": [
        {
          "internalType": "uint256",
          "name": "",
          "type": "uint256"
        }
      ],
      "stateMutability": "view",
      "type": "function"
    },
    {
      "inputs": [],
      "name": "getUserItems",
      "outputs": [
        {
          "components": [
            {
              "internalType": "string",
              "name": "status",
              "type": "string"
            },
            {
              "internalType": "uint256",
              "name": "tokenId",
              "type": "uint256"
            },
            {
              "internalType": "address",
              "name": "owner",
              "type": "address"
            },
            {
              "internalType": "uint256",
              "name": "listingPrice",
              "type": "uint256"
            },
            {
              "internalType": "uint256",
              "name": "basePrice",
              "type": "uint256"
            },
            {
              "internalType": "uint256",
              "name": "endTime",
              "type": "uint256"
            }
          ],
          "internalType": "struct Marketplace.Item[]",
          "name": "",
          "type": "tuple[]"
        }
      ],
      "stateMutability": "view",
      "type": "function"
    },
    {
      "inputs": [
        {
          "internalType": "address",
          "name": "owner",
          "type": "address"
        },
        {
          "internalType": "address",
          "name": "operator",
          "type": "address"
        }
      ],
      "name": "isApprovedForAll",
      "outputs": [
        {
          "internalType": "bool",
          "name": "",
          "type": "bool"
        }
      ],
      "stateMutability": "view",
      "type": "function"
    },
    {
      "inputs": [
        {
          "internalType": "uint256",
          "name": "tokenId",
          "type": "uint256"
        },
        {
          "internalType": "uint256",
          "name": "price",
          "type": "uint256"
        }
      ],
      "name": "listItem",
      "outputs": [],
      "stateMutability": "nonpayable",
      "type": "function"
    },
    {
      "inputs": [
        {
          "internalType": "string",
          "name": "tokenURI",
          "type": "string"
        }
      ],
      "name": "mintNFT",
      "outputs": [],
      "stateMutability": "nonpayable",
      "type": "function"
    },
    {
      "inputs": [],
      "name": "name",
      "outputs": [
        {
          "internalType": "string",
          "name": "",
          "type": "string"
        }
      ],
      "stateMutability": "view",
      "type": "function"
    },
    {
      "inputs": [
        {
          "internalType": "uint256",
          "name": "tokenId",
          "type": "uint256"
        }
      ],
      "name": "ownerOf",
      "outputs": [
        {
          "internalType": "address",
          "name": "",
          "type": "address"
        }
      ],
      "stateMutability": "view",
      "type": "function"
    },
    {
      "inputs": [
        {
          "internalType": "bytes",
          "name": "performData",
          "type": "bytes"
        }
      ],
      "name": "performUpkeep",
      "outputs": [],
      "stateMutability": "nonpayable",
      "type": "function"
    },
    {
      "inputs": [
        {
          "internalType": "address",
          "name": "from",
          "type": "address"
        },
        {
          "internalType": "address",
          "name": "to",
          "type": "address"
        },
        {
          "internalType": "uint256",
          "name": "tokenId",
          "type": "uint256"
        }
      ],
      "name": "safeTransferFrom",
      "outputs": [],
      "stateMutability": "nonpayable",
      "type": "function"
    },
    {
      "inputs": [
        {
          "internalType": "address",
          "name": "from",
          "type": "address"
        },
        {
          "internalType": "address",
          "name": "to",
          "type": "address"
        },
        {
          "internalType": "uint256",
          "name": "tokenId",
          "type": "uint256"
        },
        {
          "internalType": "bytes",
          "name": "data",
          "type": "bytes"
        }
      ],
      "name": "safeTransferFrom",
      "outputs": [],
      "stateMutability": "nonpayable",
      "type": "function"
    },
    {
      "inputs": [
        {
          "internalType": "address",
          "name": "operator",
          "type": "address"
        },
        {
          "internalType": "bool",
          "name": "approved",
          "type": "bool"
        }
      ],
      "name": "setApprovalForAll",
      "outputs": [],
      "stateMutability": "nonpayable",
      "type": "function"
    },
    {
      "inputs": [
        {
          "internalType": "uint256",
          "name": "tokenId",
          "type": "uint256"
        },
        {
          "internalType": "uint256",
          "name": "basePrice",
          "type": "uint256"
        },
        {
          "internalType": "uint256",
          "name": "endTime",
          "type": "uint256"
        }
      ],
      "name": "startAuction",
      "outputs": [],
      "stateMutability": "nonpayable",
      "type": "function"
    },
    {
      "inputs": [
        {
          "internalType": "bytes4",
          "name": "interfaceId",
          "type": "bytes4"
        }
      ],
      "name": "supportsInterface",
      "outputs": [
        {
          "internalType": "bool",
          "name": "",
          "type": "bool"
        }
      ],
      "stateMutability": "view",
      "type": "function"
    },
    {
      "inputs": [],
      "name": "symbol",
      "outputs": [
        {
          "internalType": "string",
          "name": "",
          "type": "string"
        }
      ],
      "stateMutability": "view",
      "type": "function"
    },
    {
      "inputs": [
        {
          "internalType": "uint256",
          "name": "tokenId",
          "type": "uint256"
        }
      ],
      "name": "tokenURI",
      "outputs": [
        {
          "internalType": "string",
          "name": "",
          "type": "string"
        }
      ],
      "stateMutability": "view",
      "type": "function"
    },
    {
      "inputs": [
        {
          "internalType": "address",
          "name": "from",
          "type": "address"
        },
        {
          "internalType": "address",
          "name": "to",
          "type": "address"
        },
        {
          "internalType": "uint256",
          "name": "tokenId",
          "type": "uint256"
        }
      ],
      "name": "transferFrom",
      "outputs": [],
      "stateMutability": "nonpayable",
      "type": "function"
    },
    {
      "inputs": [
        {
          "internalType": "uint256",
          "name": "tokenId",
          "type": "uint256"
        },
        {
          "internalType": "uint256",
          "name": "newPrice",
          "type": "uint256"
        }
      ],
      "name": "updateListing",
      "outputs": [],
      "stateMutability": "nonpayable",
      "type": "function"
    },
    {
      "inputs": [],
      "name": "withdrawProceeds",
      "outputs": [],
      "stateMutability": "nonpayable",
      "type": "function"
    }
  ],
  "transactionHash": "0xa89fb58ace0fef95738610ee45fef5b6174d5b694783b8f31391d718cd4c4f77",
  "args": [],
  "numDeployments": 1,
  "solcInputHash": "5c739195a5309b793a42218dff10c64e",
  "bytecode": "0x60806040523480156200001157600080fd5b506040518060400160405280600981526020017f53706163655368697000000000000000000000000000000000000000000000008152506040518060400160405280600281526020017f5353000000000000000000000000000000000000000000000000000000000000815250816000908051906020019062000096929190620000b8565b508060019080519060200190620000af929190620000b8565b505050620001cd565b828054620000c69062000197565b90600052602060002090601f016020900481019282620000ea576000855562000136565b82601f106200010557805160ff191683800117855562000136565b8280016001018555821562000136579182015b828111156200013557825182559160200191906001019062000118565b5b50905062000145919062000149565b5090565b5b80821115620001645760008160009055506001016200014a565b5090565b7f4e487b7100000000000000000000000000000000000000000000000000000000600052602260045260246000fd5b60006002820490506001821680620001b057607f821691505b60208210811415620001c757620001c662000168565b5b50919050565b615cd580620001dd6000396000f3fe6080604052600436106101c25760003560e01c806356189236116100f757806391e078bb11610095578063c87b56dd11610064578063c87b56dd14610654578063e7fb74c714610691578063e985e9c5146106ad578063fb37e883146106ea576101c2565b806391e078bb146105ae57806395d89b41146105d7578063a22cb46514610602578063b88d4fde1461062b576101c2565b80636e04ff0d116100d15780636e04ff0d146104f357806370a0823114610531578063883efa671461056e5780639038e69314610597576101c2565b806356189236146104605780636352211e1461048b5780636502096a146104c8576101c2565b806330cfeda91161016457806342842e0e1161013e57806342842e0e146103b5578063454a2ab3146103de5780634585e33b146103fa5780634fa7b50714610423576101c2565b806330cfeda9146103105780633129e7731461034d578063410d59cc1461038a576101c2565b8063081812fc116101a0578063081812fc14610258578063095ea7b31461029557806323b872dd146102be578063305a67a8146102e7576101c2565b80630179ea88146101c757806301ffc9a7146101f057806306fdde031461022d575b600080fd5b3480156101d357600080fd5b506101ee60048036038101906101e991906144c3565b610713565b005b3480156101fc57600080fd5b506102176004803603810190610212919061455b565b61096b565b60405161022491906145a3565b60405180910390f35b34801561023957600080fd5b50610242610a4d565b60405161024f9190614657565b60405180910390f35b34801561026457600080fd5b5061027f600480360381019061027a9190614679565b610adf565b60405161028c91906146e7565b60405180910390f35b3480156102a157600080fd5b506102bc60048036038101906102b7919061472e565b610b25565b005b3480156102ca57600080fd5b506102e560048036038101906102e0919061476e565b610c3d565b005b3480156102f357600080fd5b5061030e60048036038101906103099190614679565b610c9d565b005b34801561031c57600080fd5b50610337600480360381019061033291906147c1565b610eff565b60405161034491906147fd565b60405180910390f35b34801561035957600080fd5b50610374600480360381019061036f9190614679565b610f48565b6040516103819190614909565b60405180910390f35b34801561039657600080fd5b5061039f611094565b6040516103ac9190614a76565b60405180910390f35b3480156103c157600080fd5b506103dc60048036038101906103d7919061476e565b611203565b005b6103f860048036038101906103f39190614679565b611223565b005b34801561040657600080fd5b50610421600480360381019061041c9190614afd565b6114e0565b005b34801561042f57600080fd5b5061044a60048036038101906104459190614679565b61153b565b6040516104579190614c28565b60405180910390f35b34801561046c57600080fd5b5061047561160d565b60405161048291906147fd565b60405180910390f35b34801561049757600080fd5b506104b260048036038101906104ad9190614679565b611617565b6040516104bf91906146e7565b60405180910390f35b3480156104d457600080fd5b506104dd61169e565b6040516104ea9190614a76565b60405180910390f35b3480156104ff57600080fd5b5061051a60048036038101906105159190614afd565b611948565b604051610528929190614c9f565b60405180910390f35b34801561053d57600080fd5b50610558600480360381019061055391906147c1565b611ba9565b60405161056591906147fd565b60405180910390f35b34801561057a57600080fd5b50610595600480360381019061059091906144c3565b611c61565b005b3480156105a357600080fd5b506105ac612000565b005b3480156105ba57600080fd5b506105d560048036038101906105d09190614ccf565b612173565b005b3480156105e357600080fd5b506105ec612583565b6040516105f99190614657565b60405180910390f35b34801561060e57600080fd5b5061062960048036038101906106249190614d4e565b612615565b005b34801561063757600080fd5b50610652600480360381019061064d9190614ebe565b61262b565b005b34801561066057600080fd5b5061067b60048036038101906106769190614679565b61268d565b6040516106889190614657565b60405180910390f35b6106ab60048036038101906106a69190614679565b6127a0565b005b3480156106b957600080fd5b506106d460048036038101906106cf9190614f41565b612bc8565b6040516106e191906145a3565b60405180910390f35b3480156106f657600080fd5b50610711600480360381019061070c9190614fd7565b612c5c565b005b816000600880549050148061072d57506008805490508110155b1561076f57806040517f64a9cc0800000000000000000000000000000000000000000000000000000000815260040161076691906147fd565b60405180910390fd5b82338073ffffffffffffffffffffffffffffffffffffffff166008838154811061079c5761079b615024565b5b906000526020600020906006020160020160009054906101000a900473ffffffffffffffffffffffffffffffffffffffff1673ffffffffffffffffffffffffffffffffffffffff16146108285781816040517fefdfafbd00000000000000000000000000000000000000000000000000000000815260040161081f929190615053565b60405180910390fd5b84600060088054905014806108b257506040518060400160405280600681526020017f4c69737465640000000000000000000000000000000000000000000000000000815250805190602001206008828154811061088957610888615024565b5b90600052602060002090600602016000016040516108a7919061517c565b604051809103902014155b156108f457806040517f9b57d5c20000000000000000000000000000000000000000000000000000000081526004016108eb91906147fd565b60405180910390fd5b6000851161093957846040517f7b83330d00000000000000000000000000000000000000000000000000000000815260040161093091906147fd565b60405180910390fd5b846008878154811061094e5761094d615024565b5b906000526020600020906006020160030181905550505050505050565b60007f80ac58cd000000000000000000000000000000000000000000000000000000007bffffffffffffffffffffffffffffffffffffffffffffffffffffffff1916827bffffffffffffffffffffffffffffffffffffffffffffffffffffffff19161480610a3657507f5b5e139f000000000000000000000000000000000000000000000000000000007bffffffffffffffffffffffffffffffffffffffffffffffffffffffff1916827bffffffffffffffffffffffffffffffffffffffffffffffffffffffff1916145b80610a465750610a4582612e5e565b5b9050919050565b606060008054610a5c906150ab565b80601f0160208091040260200160405190810160405280929190818152602001828054610a88906150ab565b8015610ad55780601f10610aaa57610100808354040283529160200191610ad5565b820191906000526020600020905b815481529060010190602001808311610ab857829003601f168201915b5050505050905090565b6000610aea82612ec8565b6004600083815260200190815260200160002060009054906101000a900473ffffffffffffffffffffffffffffffffffffffff169050919050565b6000610b3082611617565b90508073ffffffffffffffffffffffffffffffffffffffff168373ffffffffffffffffffffffffffffffffffffffff161415610ba1576040517f08c379a0000000000000000000000000000000000000000000000000000000008152600401610b9890615205565b60405180910390fd5b8073ffffffffffffffffffffffffffffffffffffffff16610bc0612f13565b73ffffffffffffffffffffffffffffffffffffffff161480610bef5750610bee81610be9612f13565b612bc8565b5b610c2e576040517f08c379a0000000000000000000000000000000000000000000000000000000008152600401610c2590615297565b60405180910390fd5b610c388383612f1b565b505050565b610c4e610c48612f13565b82612fd4565b610c8d576040517f08c379a0000000000000000000000000000000000000000000000000000000008152600401610c8490615329565b60405180910390fd5b610c98838383613069565b505050565b8060006008805490501480610cb757506008805490508110155b15610cf957806040517f64a9cc08000000000000000000000000000000000000000000000000000000008152600401610cf091906147fd565b60405180910390fd5b81338073ffffffffffffffffffffffffffffffffffffffff1660088381548110610d2657610d25615024565b5b906000526020600020906006020160020160009054906101000a900473ffffffffffffffffffffffffffffffffffffffff1673ffffffffffffffffffffffffffffffffffffffff1614610db25781816040517fefdfafbd000000000000000000000000000000000000000000000000000000008152600401610da9929190615053565b60405180910390fd5b8360006008805490501480610e3c57506040518060400160405280600681526020017f4c697374656400000000000000000000000000000000000000000000000000008152508051906020012060088281548110610e1357610e12615024565b5b9060005260206000209060060201600001604051610e31919061517c565b604051809103902014155b15610e7e57806040517f9b57d5c2000000000000000000000000000000000000000000000000000000008152600401610e7591906147fd565b60405180910390fd5b6040518060400160405280600781526020017f437265617465640000000000000000000000000000000000000000000000000081525060088681548110610ec857610ec7615024565b5b90600052602060002090600602016000019080519060200190610eec92919061438a565b50610ef8303387613069565b5050505050565b6000600b60008373ffffffffffffffffffffffffffffffffffffffff1673ffffffffffffffffffffffffffffffffffffffff168152602001908152602001600020549050919050565b610f50614410565b60088281548110610f6457610f63615024565b5b90600052602060002090600602016040518060c0016040529081600082018054610f8d906150ab565b80601f0160208091040260200160405190810160405280929190818152602001828054610fb9906150ab565b80156110065780601f10610fdb57610100808354040283529160200191611006565b820191906000526020600020905b815481529060010190602001808311610fe957829003601f168201915b50505050508152602001600182015481526020016002820160009054906101000a900473ffffffffffffffffffffffffffffffffffffffff1673ffffffffffffffffffffffffffffffffffffffff1673ffffffffffffffffffffffffffffffffffffffff16815260200160038201548152602001600482015481526020016005820154815250509050919050565b60606008805480602002602001604051908101604052809291908181526020016000905b828210156111fa57838290600052602060002090600602016040518060c00160405290816000820180546110eb906150ab565b80601f0160208091040260200160405190810160405280929190818152602001828054611117906150ab565b80156111645780601f1061113957610100808354040283529160200191611164565b820191906000526020600020905b81548152906001019060200180831161114757829003601f168201915b50505050508152602001600182015481526020016002820160009054906101000a900473ffffffffffffffffffffffffffffffffffffffff1673ffffffffffffffffffffffffffffffffffffffff1673ffffffffffffffffffffffffffffffffffffffff1681526020016003820154815260200160048201548152602001600582015481525050815260200190600101906110b8565b50505050905090565b61121e8383836040518060200160405280600081525061262b565b505050565b80600060088054905014806112ad57506040518060400160405280600a81526020017f4f6e2041756374696f6e00000000000000000000000000000000000000000000815250805190602001206008828154811061128457611283615024565b5b90600052602060002090600602016000016040516112a2919061517c565b604051809103902014155b156112ef57806040517f33a23e860000000000000000000000000000000000000000000000000000000081526004016112e691906147fd565b60405180910390fd5b6000600a6000848152602001908152602001600020805490501115611422576000600a60008481526020019081526020016000206001600a6000868152602001908152602001600020805490506113469190615378565b8154811061135757611356615024565b5b90600052602060002090600202016040518060400160405290816000820160009054906101000a900473ffffffffffffffffffffffffffffffffffffffff1673ffffffffffffffffffffffffffffffffffffffff1673ffffffffffffffffffffffffffffffffffffffff168152602001600182015481525050905034816020015110611420578060200151346040517f3f94930d0000000000000000000000000000000000000000000000000000000081526004016114179291906153ac565b60405180910390fd5b505b600a600083815260200190815260200160002060405180604001604052803373ffffffffffffffffffffffffffffffffffffffff16815260200134815250908060018154018082558091505060019003906000526020600020906002020160009091909190915060008201518160000160006101000a81548173ffffffffffffffffffffffffffffffffffffffff021916908373ffffffffffffffffffffffffffffffffffffffff1602179055506020820151816001015550505050565b600082828101906114f19190615498565b905060005b81518110156115355761152282828151811061151557611514615024565b5b6020026020010151613363565b808061152d906154e1565b9150506114f6565b50505050565b6060600a6000838152602001908152602001600020805480602002602001604051908101604052809291908181526020016000905b8282101561160257838290600052602060002090600202016040518060400160405290816000820160009054906101000a900473ffffffffffffffffffffffffffffffffffffffff1673ffffffffffffffffffffffffffffffffffffffff1673ffffffffffffffffffffffffffffffffffffffff16815260200160018201548152505081526020019060010190611570565b505050509050919050565b6000600754905090565b600080611623836138a8565b9050600073ffffffffffffffffffffffffffffffffffffffff168173ffffffffffffffffffffffffffffffffffffffff161415611695576040517f08c379a000000000000000000000000000000000000000000000000000000000815260040161168c90615576565b60405180910390fd5b80915050919050565b60606000600960003373ffffffffffffffffffffffffffffffffffffffff1673ffffffffffffffffffffffffffffffffffffffff1681526020019081526020016000205467ffffffffffffffff8111156116fb576116fa614d93565b5b60405190808252806020026020018201604052801561173457816020015b611721614410565b8152602001906001900390816117195790505b5090506000805b60088054905081101561193f573373ffffffffffffffffffffffffffffffffffffffff166008828154811061177357611772615024565b5b906000526020600020906006020160020160009054906101000a900473ffffffffffffffffffffffffffffffffffffffff1673ffffffffffffffffffffffffffffffffffffffff16141561192c57600881815481106117d5576117d4615024565b5b90600052602060002090600602016040518060c00160405290816000820180546117fe906150ab565b80601f016020809104026020016040519081016040528092919081815260200182805461182a906150ab565b80156118775780601f1061184c57610100808354040283529160200191611877565b820191906000526020600020905b81548152906001019060200180831161185a57829003601f168201915b50505050508152602001600182015481526020016002820160009054906101000a900473ffffffffffffffffffffffffffffffffffffffff1673ffffffffffffffffffffffffffffffffffffffff1673ffffffffffffffffffffffffffffffffffffffff168152602001600382015481526020016004820154815260200160058201548152505083838151811061191157611910615024565b5b60200260200101819052506001826119299190615596565b91505b8080611937906154e1565b91505061173b565b50819250505090565b600060606000805b600754811015611a2f576040518060400160405280600a81526020017f4f6e2041756374696f6e0000000000000000000000000000000000000000000081525080519060200120600882815481106119ab576119aa615024565b5b90600052602060002090600602016000016040516119c9919061517c565b6040518091039020148015611a03575042600882815481106119ee576119ed615024565b5b90600052602060002090600602016005015411155b15611a1c5760019350600182611a199190615596565b91505b8080611a27906154e1565b915050611950565b506000808267ffffffffffffffff811115611a4d57611a4c614d93565b5b604051908082528060200260200182016040528015611a7b5781602001602082028036833780820191505090505b50905060005b600754811015611b79576040518060400160405280600a81526020017f4f6e2041756374696f6e000000000000000000000000000000000000000000008152508051906020012060088281548110611adc57611adb615024565b5b9060005260206000209060060201600001604051611afa919061517c565b6040518091039020148015611b3457504260088281548110611b1f57611b1e615024565b5b90600052602060002090600602016005015411155b15611b665780828480611b46906154e1565b955081518110611b5957611b58615024565b5b6020026020010181815250505b8080611b71906154e1565b915050611a81565b508481604051602001611b8c919061569b565b604051602081830303815290604052945094505050509250929050565b60008073ffffffffffffffffffffffffffffffffffffffff168273ffffffffffffffffffffffffffffffffffffffff161415611c1a576040517f08c379a0000000000000000000000000000000000000000000000000000000008152600401611c119061572f565b60405180910390fd5b600360008373ffffffffffffffffffffffffffffffffffffffff1673ffffffffffffffffffffffffffffffffffffffff168152602001908152602001600020549050919050565b8160006008805490501480611c7b57506008805490508110155b15611cbd57806040517f64a9cc08000000000000000000000000000000000000000000000000000000008152600401611cb491906147fd565b60405180910390fd5b82338073ffffffffffffffffffffffffffffffffffffffff1660088381548110611cea57611ce9615024565b5b906000526020600020906006020160020160009054906101000a900473ffffffffffffffffffffffffffffffffffffffff1673ffffffffffffffffffffffffffffffffffffffff1614611d765781816040517fefdfafbd000000000000000000000000000000000000000000000000000000008152600401611d6d929190615053565b60405180910390fd5b846000600880549050118015611e0057506040518060400160405280600681526020017f4c697374656400000000000000000000000000000000000000000000000000008152508051906020012060088281548110611dd857611dd7615024565b5b9060005260206000209060060201600001604051611df6919061517c565b6040518091039020145b15611e4257806040517f778437c4000000000000000000000000000000000000000000000000000000008152600401611e3991906147fd565b60405180910390fd5b856000600880549050118015611ecc57506040518060400160405280600a81526020017f4f6e2041756374696f6e000000000000000000000000000000000000000000008152508051906020012060088281548110611ea457611ea3615024565b5b9060005260206000209060060201600001604051611ec2919061517c565b6040518091039020145b15611f0e57806040517f9106122c000000000000000000000000000000000000000000000000000000008152600401611f0591906147fd565b60405180910390fd5b60008611611f5357856040517f7b83330d000000000000000000000000000000000000000000000000000000008152600401611f4a91906147fd565b60405180910390fd5b6040518060400160405280600681526020017f4c6973746564000000000000000000000000000000000000000000000000000081525060088881548110611f9d57611f9c615024565b5b90600052602060002090600602016000019080519060200190611fc192919061438a565b508560088881548110611fd757611fd6615024565b5b906000526020600020906006020160030181905550611ff7333089613069565b50505050505050565b6000600b60003373ffffffffffffffffffffffffffffffffffffffff1673ffffffffffffffffffffffffffffffffffffffff1681526020019081526020016000205490506000811161207e576040517f25e2363000000000000000000000000000000000000000000000000000000000815260040160405180910390fd5b6000600b60003373ffffffffffffffffffffffffffffffffffffffff1673ffffffffffffffffffffffffffffffffffffffff1681526020019081526020016000208190555060003373ffffffffffffffffffffffffffffffffffffffff16826040516120e990615775565b60006040518083038185875af1925050503d8060008114612126576040519150601f19603f3d011682016040523d82523d6000602084013e61212b565b606091505b505090508061216f576040517f08c379a0000000000000000000000000000000000000000000000000000000008152600401612166906157d6565b60405180910390fd5b5050565b826000600880549050148061218d57506008805490508110155b156121cf57806040517f64a9cc080000000000000000000000000000000000000000000000000000000081526004016121c691906147fd565b60405180910390fd5b83338073ffffffffffffffffffffffffffffffffffffffff16600883815481106121fc576121fb615024565b5b906000526020600020906006020160020160009054906101000a900473ffffffffffffffffffffffffffffffffffffffff1673ffffffffffffffffffffffffffffffffffffffff16146122885781816040517fefdfafbd00000000000000000000000000000000000000000000000000000000815260040161227f929190615053565b60405180910390fd5b85600060088054905011801561231257506040518060400160405280600681526020017f4c6973746564000000000000000000000000000000000000000000000000000081525080519060200120600882815481106122ea576122e9615024565b5b9060005260206000209060060201600001604051612308919061517c565b6040518091039020145b1561235457806040517f778437c400000000000000000000000000000000000000000000000000000000815260040161234b91906147fd565b60405180910390fd5b8660006008805490501180156123de57506040518060400160405280600a81526020017f4f6e2041756374696f6e0000000000000000000000000000000000000000000081525080519060200120600882815481106123b6576123b5615024565b5b90600052602060002090600602016000016040516123d4919061517c565b6040518091039020145b1561242057806040517f9106122c00000000000000000000000000000000000000000000000000000000815260040161241791906147fd565b60405180910390fd5b6000871161246557866040517f7b83330d00000000000000000000000000000000000000000000000000000000815260040161245c91906147fd565b60405180910390fd5b4286116124ab5742866040517f20b063c10000000000000000000000000000000000000000000000000000000081526004016124a29291906153ac565b60405180910390fd5b6040518060400160405280600a81526020017f4f6e2041756374696f6e00000000000000000000000000000000000000000000815250600889815481106124f5576124f4615024565b5b9060005260206000209060060201600001908051906020019061251992919061438a565b50866008898154811061252f5761252e615024565b5b906000526020600020906006020160040181905550856008898154811061255957612558615024565b5b90600052602060002090600602016005018190555061257933308a613069565b5050505050505050565b606060018054612592906150ab565b80601f01602080910402602001604051908101604052809291908181526020018280546125be906150ab565b801561260b5780601f106125e05761010080835404028352916020019161260b565b820191906000526020600020905b8154815290600101906020018083116125ee57829003601f168201915b5050505050905090565b612627612620612f13565b83836138e5565b5050565b61263c612636612f13565b83612fd4565b61267b576040517f08c379a000000000000000000000000000000000000000000000000000000000815260040161267290615329565b60405180910390fd5b61268784848484613a52565b50505050565b606061269882612ec8565b60006006600084815260200190815260200160002080546126b8906150ab565b80601f01602080910402602001604051908101604052809291908181526020018280546126e4906150ab565b80156127315780601f1061270657610100808354040283529160200191612731565b820191906000526020600020905b81548152906001019060200180831161271457829003601f168201915b505050505090506000612742613aae565b905060008151141561275857819250505061279b565b60008251111561278d578082604051602001612775929190615832565b6040516020818303038152906040529250505061279b565b61279684613ac5565b925050505b919050565b80600060088054905014806127ba57506008805490508110155b156127fc57806040517f64a9cc080000000000000000000000000000000000000000000000000000000081526004016127f391906147fd565b60405180910390fd5b816000600880549050148061288657506040518060400160405280600681526020017f4c69737465640000000000000000000000000000000000000000000000000000815250805190602001206008828154811061285d5761285c615024565b5b906000526020600020906006020160000160405161287b919061517c565b604051809103902014155b156128c857806040517f9b57d5c20000000000000000000000000000000000000000000000000000000081526004016128bf91906147fd565b60405180910390fd5b600883815481106128dc576128db615024565b5b906000526020600020906006020160030154341015612957576008838154811061290957612908615024565b5b9060005260206000209060060201600301546040517f7b83330d00000000000000000000000000000000000000000000000000000000815260040161294e91906147fd565b60405180910390fd5b34600b6000600886815481106129705761296f615024565b5b906000526020600020906006020160020160009054906101000a900473ffffffffffffffffffffffffffffffffffffffff1673ffffffffffffffffffffffffffffffffffffffff1673ffffffffffffffffffffffffffffffffffffffff16815260200190815260200160002060008282546129eb9190615596565b925050819055506129fd303385613069565b60016009600060088681548110612a1757612a16615024565b5b906000526020600020906006020160020160009054906101000a900473ffffffffffffffffffffffffffffffffffffffff1673ffffffffffffffffffffffffffffffffffffffff1673ffffffffffffffffffffffffffffffffffffffff1681526020019081526020016000206000828254612a929190615378565b925050819055506001600960003373ffffffffffffffffffffffffffffffffffffffff1673ffffffffffffffffffffffffffffffffffffffff1681526020019081526020016000206000828254612ae99190615596565b925050819055506040518060400160405280600681526020017f426f75676874000000000000000000000000000000000000000000000000000081525060088481548110612b3a57612b39615024565b5b90600052602060002090600602016000019080519060200190612b5e92919061438a565b503360088481548110612b7457612b73615024565b5b906000526020600020906006020160020160006101000a81548173ffffffffffffffffffffffffffffffffffffffff021916908373ffffffffffffffffffffffffffffffffffffffff160217905550505050565b6000600560008473ffffffffffffffffffffffffffffffffffffffff1673ffffffffffffffffffffffffffffffffffffffff16815260200190815260200160002060008373ffffffffffffffffffffffffffffffffffffffff1673ffffffffffffffffffffffffffffffffffffffff16815260200190815260200160002060009054906101000a900460ff16905092915050565b612c6833600754613b2d565b612cb860075483838080601f016020809104026020016040519081016040528093929190818152602001838380828437600081840152601f19601f82011690508083019250505050505050613b4b565b60086040518060c001604052806040518060400160405280600781526020017f4372656174656400000000000000000000000000000000000000000000000000815250815260200160075481526020013373ffffffffffffffffffffffffffffffffffffffff1681526020016000815260200160008152602001600081525090806001815401808255809150506001900390600052602060002090600602016000909190919091506000820151816000019080519060200190612d7c92919061438a565b506020820151816001015560408201518160020160006101000a81548173ffffffffffffffffffffffffffffffffffffffff021916908373ffffffffffffffffffffffffffffffffffffffff160217905550606082015181600301556080820151816004015560a0820151816005015550506001600960003373ffffffffffffffffffffffffffffffffffffffff1673ffffffffffffffffffffffffffffffffffffffff1681526020019081526020016000206000828254612e3e9190615596565b925050819055506001600754612e549190615596565b6007819055505050565b60007f01ffc9a7000000000000000000000000000000000000000000000000000000007bffffffffffffffffffffffffffffffffffffffffffffffffffffffff1916827bffffffffffffffffffffffffffffffffffffffffffffffffffffffff1916149050919050565b612ed181613bbf565b612f10576040517f08c379a0000000000000000000000000000000000000000000000000000000008152600401612f0790615576565b60405180910390fd5b50565b600033905090565b816004600083815260200190815260200160002060006101000a81548173ffffffffffffffffffffffffffffffffffffffff021916908373ffffffffffffffffffffffffffffffffffffffff160217905550808273ffffffffffffffffffffffffffffffffffffffff16612f8e83611617565b73ffffffffffffffffffffffffffffffffffffffff167f8c5be1e5ebec7d5bd14f71427d1e84f3dd0314c0f7b2291e5b200ac8c7c3b92560405160405180910390a45050565b600080612fe083611617565b90508073ffffffffffffffffffffffffffffffffffffffff168473ffffffffffffffffffffffffffffffffffffffff16148061302257506130218185612bc8565b5b8061306057508373ffffffffffffffffffffffffffffffffffffffff1661304884610adf565b73ffffffffffffffffffffffffffffffffffffffff16145b91505092915050565b8273ffffffffffffffffffffffffffffffffffffffff1661308982611617565b73ffffffffffffffffffffffffffffffffffffffff16146130df576040517f08c379a00000000000000000000000000000000000000000000000000000000081526004016130d6906158c8565b60405180910390fd5b600073ffffffffffffffffffffffffffffffffffffffff168273ffffffffffffffffffffffffffffffffffffffff16141561314f576040517f08c379a00000000000000000000000000000000000000000000000000000000081526004016131469061595a565b60405180910390fd5b61315c8383836001613c00565b8273ffffffffffffffffffffffffffffffffffffffff1661317c82611617565b73ffffffffffffffffffffffffffffffffffffffff16146131d2576040517f08c379a00000000000000000000000000000000000000000000000000000000081526004016131c9906158c8565b60405180910390fd5b6004600082815260200190815260200160002060006101000a81549073ffffffffffffffffffffffffffffffffffffffff02191690556001600360008573ffffffffffffffffffffffffffffffffffffffff1673ffffffffffffffffffffffffffffffffffffffff168152602001908152602001600020600082825403925050819055506001600360008473ffffffffffffffffffffffffffffffffffffffff1673ffffffffffffffffffffffffffffffffffffffff16815260200190815260200160002060008282540192505081905550816002600083815260200190815260200160002060006101000a81548173ffffffffffffffffffffffffffffffffffffffff021916908373ffffffffffffffffffffffffffffffffffffffff160217905550808273ffffffffffffffffffffffffffffffffffffffff168473ffffffffffffffffffffffffffffffffffffffff167fddf252ad1be2c89b69c2b068fc378daa952ba7f163c4a11628f55a4df523b3ef60405160405180910390a461335e8383836001613d26565b505050565b6000600a6000838152602001908152602001600020805490509050600081141561344c576133d7306008848154811061339f5761339e615024565b5b906000526020600020906006020160020160009054906101000a900473ffffffffffffffffffffffffffffffffffffffff1684613069565b6040518060400160405280600781526020017f43726561746564000000000000000000000000000000000000000000000000008152506008838154811061342157613420615024565b5b9060005260206000209060060201600001908051906020019061344592919061438a565b50506138a5565b60005b60018261345c9190615378565b811015613577576000600a6000858152602001908152602001600020828154811061348a57613489615024565b5b90600052602060002090600202016040518060400160405290816000820160009054906101000a900473ffffffffffffffffffffffffffffffffffffffff1673ffffffffffffffffffffffffffffffffffffffff1673ffffffffffffffffffffffffffffffffffffffff16815260200160018201548152505090508060200151600b6000836000015173ffffffffffffffffffffffffffffffffffffffff1673ffffffffffffffffffffffffffffffffffffffff168152602001908152602001600020600082825461355c9190615596565b9250508190555050808061356f906154e1565b91505061344f565b506000600a600084815260200190815260200160002060018361359a9190615378565b815481106135ab576135aa615024565b5b90600052602060002090600202016040518060400160405290816000820160009054906101000a900473ffffffffffffffffffffffffffffffffffffffff1673ffffffffffffffffffffffffffffffffffffffff1673ffffffffffffffffffffffffffffffffffffffff16815260200160018201548152505090508060200151600b60006008868154811061364357613642615024565b5b906000526020600020906006020160020160009054906101000a900473ffffffffffffffffffffffffffffffffffffffff1673ffffffffffffffffffffffffffffffffffffffff1673ffffffffffffffffffffffffffffffffffffffff16815260200190815260200160002060008282546136be9190615596565b92505081905550600160096000600886815481106136df576136de615024565b5b906000526020600020906006020160020160009054906101000a900473ffffffffffffffffffffffffffffffffffffffff1673ffffffffffffffffffffffffffffffffffffffff1673ffffffffffffffffffffffffffffffffffffffff168152602001908152602001600020600082825461375a9190615378565b92505081905550600160096000836000015173ffffffffffffffffffffffffffffffffffffffff1673ffffffffffffffffffffffffffffffffffffffff16815260200190815260200160002060008282546137b59190615596565b925050819055506137cb30826000015185613069565b6040518060400160405280600681526020017f426f7567687400000000000000000000000000000000000000000000000000008152506008848154811061381557613814615024565b5b9060005260206000209060060201600001908051906020019061383992919061438a565b5080600001516008848154811061385357613852615024565b5b906000526020600020906006020160020160006101000a81548173ffffffffffffffffffffffffffffffffffffffff021916908373ffffffffffffffffffffffffffffffffffffffff16021790555050505b50565b60006002600083815260200190815260200160002060009054906101000a900473ffffffffffffffffffffffffffffffffffffffff169050919050565b8173ffffffffffffffffffffffffffffffffffffffff168373ffffffffffffffffffffffffffffffffffffffff161415613954576040517f08c379a000000000000000000000000000000000000000000000000000000000815260040161394b906159c6565b60405180910390fd5b80600560008573ffffffffffffffffffffffffffffffffffffffff1673ffffffffffffffffffffffffffffffffffffffff16815260200190815260200160002060008473ffffffffffffffffffffffffffffffffffffffff1673ffffffffffffffffffffffffffffffffffffffff16815260200190815260200160002060006101000a81548160ff0219169083151502179055508173ffffffffffffffffffffffffffffffffffffffff168373ffffffffffffffffffffffffffffffffffffffff167f17307eab39ab6107e8899845ad3d59bd9653f200f220920489ca2b5937696c3183604051613a4591906145a3565b60405180910390a3505050565b613a5d848484613069565b613a6984848484613d2c565b613aa8576040517f08c379a0000000000000000000000000000000000000000000000000000000008152600401613a9f90615a58565b60405180910390fd5b50505050565b606060405180602001604052806000815250905090565b6060613ad082612ec8565b6000613ada613aae565b90506000815111613afa5760405180602001604052806000815250613b25565b80613b0484613ec3565b604051602001613b15929190615832565b6040516020818303038152906040525b915050919050565b613b47828260405180602001604052806000815250613f9b565b5050565b613b5482613bbf565b613b93576040517f08c379a0000000000000000000000000000000000000000000000000000000008152600401613b8a90615aea565b60405180910390fd5b80600660008481526020019081526020016000209080519060200190613bba92919061438a565b505050565b60008073ffffffffffffffffffffffffffffffffffffffff16613be1836138a8565b73ffffffffffffffffffffffffffffffffffffffff1614159050919050565b6001811115613d2057600073ffffffffffffffffffffffffffffffffffffffff168473ffffffffffffffffffffffffffffffffffffffff1614613c945780600360008673ffffffffffffffffffffffffffffffffffffffff1673ffffffffffffffffffffffffffffffffffffffff1681526020019081526020016000206000828254613c8c9190615378565b925050819055505b600073ffffffffffffffffffffffffffffffffffffffff168373ffffffffffffffffffffffffffffffffffffffff1614613d1f5780600360008573ffffffffffffffffffffffffffffffffffffffff1673ffffffffffffffffffffffffffffffffffffffff1681526020019081526020016000206000828254613d179190615596565b925050819055505b5b50505050565b50505050565b6000613d4d8473ffffffffffffffffffffffffffffffffffffffff16613ff6565b15613eb6578373ffffffffffffffffffffffffffffffffffffffff1663150b7a02613d76612f13565b8786866040518563ffffffff1660e01b8152600401613d989493929190615b0a565b602060405180830381600087803b158015613db257600080fd5b505af1925050508015613de357506040513d601f19601f82011682018060405250810190613de09190615b6b565b60015b613e66573d8060008114613e13576040519150601f19603f3d011682016040523d82523d6000602084013e613e18565b606091505b50600081511415613e5e576040517f08c379a0000000000000000000000000000000000000000000000000000000008152600401613e5590615a58565b60405180910390fd5b805181602001fd5b63150b7a0260e01b7bffffffffffffffffffffffffffffffffffffffffffffffffffffffff1916817bffffffffffffffffffffffffffffffffffffffffffffffffffffffff191614915050613ebb565b600190505b949350505050565b606060006001613ed284614019565b01905060008167ffffffffffffffff811115613ef157613ef0614d93565b5b6040519080825280601f01601f191660200182016040528015613f235781602001600182028036833780820191505090505b509050600082602001820190505b600115613f90578080600190039150507f3031323334353637383961626364656600000000000000000000000000000000600a86061a8153600a8581613f7a57613f79615b98565b5b0494506000851415613f8b57613f90565b613f31565b819350505050919050565b613fa5838361416c565b613fb26000848484613d2c565b613ff1576040517f08c379a0000000000000000000000000000000000000000000000000000000008152600401613fe890615a58565b60405180910390fd5b505050565b6000808273ffffffffffffffffffffffffffffffffffffffff163b119050919050565b600080600090507a184f03e93ff9f4daa797ed6e38ed64bf6a1f0100000000000000008310614077577a184f03e93ff9f4daa797ed6e38ed64bf6a1f010000000000000000838161406d5761406c615b98565b5b0492506040810190505b6d04ee2d6d415b85acef810000000083106140b4576d04ee2d6d415b85acef810000000083816140aa576140a9615b98565b5b0492506020810190505b662386f26fc1000083106140e357662386f26fc1000083816140d9576140d8615b98565b5b0492506010810190505b6305f5e100831061410c576305f5e100838161410257614101615b98565b5b0492506008810190505b612710831061413157612710838161412757614126615b98565b5b0492506004810190505b60648310614154576064838161414a57614149615b98565b5b0492506002810190505b600a8310614163576001810190505b80915050919050565b600073ffffffffffffffffffffffffffffffffffffffff168273ffffffffffffffffffffffffffffffffffffffff1614156141dc576040517f08c379a00000000000000000000000000000000000000000000000000000000081526004016141d390615c13565b60405180910390fd5b6141e581613bbf565b15614225576040517f08c379a000000000000000000000000000000000000000000000000000000000815260040161421c90615c7f565b60405180910390fd5b614233600083836001613c00565b61423c81613bbf565b1561427c576040517f08c379a000000000000000000000000000000000000000000000000000000000815260040161427390615c7f565b60405180910390fd5b6001600360008473ffffffffffffffffffffffffffffffffffffffff1673ffffffffffffffffffffffffffffffffffffffff16815260200190815260200160002060008282540192505081905550816002600083815260200190815260200160002060006101000a81548173ffffffffffffffffffffffffffffffffffffffff021916908373ffffffffffffffffffffffffffffffffffffffff160217905550808273ffffffffffffffffffffffffffffffffffffffff16600073ffffffffffffffffffffffffffffffffffffffff167fddf252ad1be2c89b69c2b068fc378daa952ba7f163c4a11628f55a4df523b3ef60405160405180910390a4614386600083836001613d26565b5050565b828054614396906150ab565b90600052602060002090601f0160209004810192826143b857600085556143ff565b82601f106143d157805160ff19168380011785556143ff565b828001600101855582156143ff579182015b828111156143fe5782518255916020019190600101906143e3565b5b50905061440c919061445c565b5090565b6040518060c001604052806060815260200160008152602001600073ffffffffffffffffffffffffffffffffffffffff1681526020016000815260200160008152602001600081525090565b5b8082111561447557600081600090555060010161445d565b5090565b6000604051905090565b600080fd5b600080fd5b6000819050919050565b6144a08161448d565b81146144ab57600080fd5b50565b6000813590506144bd81614497565b92915050565b600080604083850312156144da576144d9614483565b5b60006144e8858286016144ae565b92505060206144f9858286016144ae565b9150509250929050565b60007fffffffff0000000000000000000000000000000000000000000000000000000082169050919050565b61453881614503565b811461454357600080fd5b50565b6000813590506145558161452f565b92915050565b60006020828403121561457157614570614483565b5b600061457f84828501614546565b91505092915050565b60008115159050919050565b61459d81614588565b82525050565b60006020820190506145b86000830184614594565b92915050565b600081519050919050565b600082825260208201905092915050565b60005b838110156145f85780820151818401526020810190506145dd565b83811115614607576000848401525b50505050565b6000601f19601f8301169050919050565b6000614629826145be565b61463381856145c9565b93506146438185602086016145da565b61464c8161460d565b840191505092915050565b60006020820190508181036000830152614671818461461e565b905092915050565b60006020828403121561468f5761468e614483565b5b600061469d848285016144ae565b91505092915050565b600073ffffffffffffffffffffffffffffffffffffffff82169050919050565b60006146d1826146a6565b9050919050565b6146e1816146c6565b82525050565b60006020820190506146fc60008301846146d8565b92915050565b61470b816146c6565b811461471657600080fd5b50565b60008135905061472881614702565b92915050565b6000806040838503121561474557614744614483565b5b600061475385828601614719565b9250506020614764858286016144ae565b9150509250929050565b60008060006060848603121561478757614786614483565b5b600061479586828701614719565b93505060206147a686828701614719565b92505060406147b7868287016144ae565b9150509250925092565b6000602082840312156147d7576147d6614483565b5b60006147e584828501614719565b91505092915050565b6147f78161448d565b82525050565b600060208201905061481260008301846147ee565b92915050565b600082825260208201905092915050565b6000614834826145be565b61483e8185614818565b935061484e8185602086016145da565b6148578161460d565b840191505092915050565b61486b8161448d565b82525050565b61487a816146c6565b82525050565b600060c083016000830151848203600086015261489d8282614829565b91505060208301516148b26020860182614862565b5060408301516148c56040860182614871565b5060608301516148d86060860182614862565b5060808301516148eb6080860182614862565b5060a08301516148fe60a0860182614862565b508091505092915050565b600060208201905081810360008301526149238184614880565b905092915050565b600081519050919050565b600082825260208201905092915050565b6000819050602082019050919050565b600060c08301600083015184820360008601526149748282614829565b91505060208301516149896020860182614862565b50604083015161499c6040860182614871565b5060608301516149af6060860182614862565b5060808301516149c26080860182614862565b5060a08301516149d560a0860182614862565b508091505092915050565b60006149ec8383614957565b905092915050565b6000602082019050919050565b6000614a0c8261492b565b614a168185614936565b935083602082028501614a2885614947565b8060005b85811015614a645784840389528151614a4585826149e0565b9450614a50836149f4565b925060208a01995050600181019050614a2c565b50829750879550505050505092915050565b60006020820190508181036000830152614a908184614a01565b905092915050565b600080fd5b600080fd5b600080fd5b60008083601f840112614abd57614abc614a98565b5b8235905067ffffffffffffffff811115614ada57614ad9614a9d565b5b602083019150836001820283011115614af657614af5614aa2565b5b9250929050565b60008060208385031215614b1457614b13614483565b5b600083013567ffffffffffffffff811115614b3257614b31614488565b5b614b3e85828601614aa7565b92509250509250929050565b600081519050919050565b600082825260208201905092915050565b6000819050602082019050919050565b604082016000820151614b8c6000850182614871565b506020820151614b9f6020850182614862565b50505050565b6000614bb18383614b76565b60408301905092915050565b6000602082019050919050565b6000614bd582614b4a565b614bdf8185614b55565b9350614bea83614b66565b8060005b83811015614c1b578151614c028882614ba5565b9750614c0d83614bbd565b925050600181019050614bee565b5085935050505092915050565b60006020820190508181036000830152614c428184614bca565b905092915050565b600081519050919050565b600082825260208201905092915050565b6000614c7182614c4a565b614c7b8185614c55565b9350614c8b8185602086016145da565b614c948161460d565b840191505092915050565b6000604082019050614cb46000830185614594565b8181036020830152614cc68184614c66565b90509392505050565b600080600060608486031215614ce857614ce7614483565b5b6000614cf6868287016144ae565b9350506020614d07868287016144ae565b9250506040614d18868287016144ae565b9150509250925092565b614d2b81614588565b8114614d3657600080fd5b50565b600081359050614d4881614d22565b92915050565b60008060408385031215614d6557614d64614483565b5b6000614d7385828601614719565b9250506020614d8485828601614d39565b9150509250929050565b600080fd5b7f4e487b7100000000000000000000000000000000000000000000000000000000600052604160045260246000fd5b614dcb8261460d565b810181811067ffffffffffffffff82111715614dea57614de9614d93565b5b80604052505050565b6000614dfd614479565b9050614e098282614dc2565b919050565b600067ffffffffffffffff821115614e2957614e28614d93565b5b614e328261460d565b9050602081019050919050565b82818337600083830152505050565b6000614e61614e5c84614e0e565b614df3565b905082815260208101848484011115614e7d57614e7c614d8e565b5b614e88848285614e3f565b509392505050565b600082601f830112614ea557614ea4614a98565b5b8135614eb5848260208601614e4e565b91505092915050565b60008060008060808587031215614ed857614ed7614483565b5b6000614ee687828801614719565b9450506020614ef787828801614719565b9350506040614f08878288016144ae565b925050606085013567ffffffffffffffff811115614f2957614f28614488565b5b614f3587828801614e90565b91505092959194509250565b60008060408385031215614f5857614f57614483565b5b6000614f6685828601614719565b9250506020614f7785828601614719565b9150509250929050565b60008083601f840112614f9757614f96614a98565b5b8235905067ffffffffffffffff811115614fb457614fb3614a9d565b5b602083019150836001820283011115614fd057614fcf614aa2565b5b9250929050565b60008060208385031215614fee57614fed614483565b5b600083013567ffffffffffffffff81111561500c5761500b614488565b5b61501885828601614f81565b92509250509250929050565b7f4e487b7100000000000000000000000000000000000000000000000000000000600052603260045260246000fd5b600060408201905061506860008301856147ee565b61507560208301846146d8565b9392505050565b7f4e487b7100000000000000000000000000000000000000000000000000000000600052602260045260246000fd5b600060028204905060018216806150c357607f821691505b602082108114156150d7576150d661507c565b5b50919050565b600081905092915050565b60008190508160005260206000209050919050565b6000815461510a816150ab565b61511481866150dd565b9450600182166000811461512f576001811461514057615173565b60ff19831686528186019350615173565b615149856150e8565b60005b8381101561516b5781548189015260018201915060208101905061514c565b838801955050505b50505092915050565b600061518882846150fd565b915081905092915050565b7f4552433732313a20617070726f76616c20746f2063757272656e74206f776e6560008201527f7200000000000000000000000000000000000000000000000000000000000000602082015250565b60006151ef6021836145c9565b91506151fa82615193565b604082019050919050565b6000602082019050818103600083015261521e816151e2565b9050919050565b7f4552433732313a20617070726f76652063616c6c6572206973206e6f7420746f60008201527f6b656e206f776e6572206f7220617070726f76656420666f7220616c6c000000602082015250565b6000615281603d836145c9565b915061528c82615225565b604082019050919050565b600060208201905081810360008301526152b081615274565b9050919050565b7f4552433732313a2063616c6c6572206973206e6f7420746f6b656e206f776e6560008201527f72206f7220617070726f76656400000000000000000000000000000000000000602082015250565b6000615313602d836145c9565b915061531e826152b7565b604082019050919050565b6000602082019050818103600083015261534281615306565b9050919050565b7f4e487b7100000000000000000000000000000000000000000000000000000000600052601160045260246000fd5b60006153838261448d565b915061538e8361448d565b9250828210156153a1576153a0615349565b5b828203905092915050565b60006040820190506153c160008301856147ee565b6153ce60208301846147ee565b9392505050565b600067ffffffffffffffff8211156153f0576153ef614d93565b5b602082029050602081019050919050565b600061541461540f846153d5565b614df3565b9050808382526020820190506020840283018581111561543757615436614aa2565b5b835b81811015615460578061544c88826144ae565b845260208401935050602081019050615439565b5050509392505050565b600082601f83011261547f5761547e614a98565b5b813561548f848260208601615401565b91505092915050565b6000602082840312156154ae576154ad614483565b5b600082013567ffffffffffffffff8111156154cc576154cb614488565b5b6154d88482850161546a565b91505092915050565b60006154ec8261448d565b91507fffffffffffffffffffffffffffffffffffffffffffffffffffffffffffffffff82141561551f5761551e615349565b5b600182019050919050565b7f4552433732313a20696e76616c696420746f6b656e2049440000000000000000600082015250565b60006155606018836145c9565b915061556b8261552a565b602082019050919050565b6000602082019050818103600083015261558f81615553565b9050919050565b60006155a18261448d565b91506155ac8361448d565b9250827fffffffffffffffffffffffffffffffffffffffffffffffffffffffffffffffff038211156155e1576155e0615349565b5b828201905092915050565b600081519050919050565b600082825260208201905092915050565b6000819050602082019050919050565b60006156248383614862565b60208301905092915050565b6000602082019050919050565b6000615648826155ec565b61565281856155f7565b935061565d83615608565b8060005b8381101561568e5781516156758882615618565b975061568083615630565b925050600181019050615661565b5085935050505092915050565b600060208201905081810360008301526156b5818461563d565b905092915050565b7f4552433732313a2061646472657373207a65726f206973206e6f74206120766160008201527f6c6964206f776e65720000000000000000000000000000000000000000000000602082015250565b60006157196029836145c9565b9150615724826156bd565b604082019050919050565b600060208201905081810360008301526157488161570c565b9050919050565b50565b600061575f6000836150dd565b915061576a8261574f565b600082019050919050565b600061578082615752565b9150819050919050565b7f5472616e73666572206661696c65640000000000000000000000000000000000600082015250565b60006157c0600f836145c9565b91506157cb8261578a565b602082019050919050565b600060208201905081810360008301526157ef816157b3565b9050919050565b600081905092915050565b600061580c826145be565b61581681856157f6565b93506158268185602086016145da565b80840191505092915050565b600061583e8285615801565b915061584a8284615801565b91508190509392505050565b7f4552433732313a207472616e736665722066726f6d20696e636f72726563742060008201527f6f776e6572000000000000000000000000000000000000000000000000000000602082015250565b60006158b26025836145c9565b91506158bd82615856565b604082019050919050565b600060208201905081810360008301526158e1816158a5565b9050919050565b7f4552433732313a207472616e7366657220746f20746865207a65726f2061646460008201527f7265737300000000000000000000000000000000000000000000000000000000602082015250565b60006159446024836145c9565b915061594f826158e8565b604082019050919050565b6000602082019050818103600083015261597381615937565b9050919050565b7f4552433732313a20617070726f766520746f2063616c6c657200000000000000600082015250565b60006159b06019836145c9565b91506159bb8261597a565b602082019050919050565b600060208201905081810360008301526159df816159a3565b9050919050565b7f4552433732313a207472616e7366657220746f206e6f6e20455243373231526560008201527f63656976657220696d706c656d656e7465720000000000000000000000000000602082015250565b6000615a426032836145c9565b9150615a4d826159e6565b604082019050919050565b60006020820190508181036000830152615a7181615a35565b9050919050565b7f45524337323155524953746f726167653a2055524920736574206f66206e6f6e60008201527f6578697374656e7420746f6b656e000000000000000000000000000000000000602082015250565b6000615ad4602e836145c9565b9150615adf82615a78565b604082019050919050565b60006020820190508181036000830152615b0381615ac7565b9050919050565b6000608082019050615b1f60008301876146d8565b615b2c60208301866146d8565b615b3960408301856147ee565b8181036060830152615b4b8184614c66565b905095945050505050565b600081519050615b658161452f565b92915050565b600060208284031215615b8157615b80614483565b5b6000615b8f84828501615b56565b91505092915050565b7f4e487b7100000000000000000000000000000000000000000000000000000000600052601260045260246000fd5b7f4552433732313a206d696e7420746f20746865207a65726f2061646472657373600082015250565b6000615bfd6020836145c9565b9150615c0882615bc7565b602082019050919050565b60006020820190508181036000830152615c2c81615bf0565b9050919050565b7f4552433732313a20746f6b656e20616c7265616479206d696e74656400000000600082015250565b6000615c69601c836145c9565b9150615c7482615c33565b602082019050919050565b60006020820190508181036000830152615c9881615c5c565b905091905056fea26469706673582212200cf5ea166e337af387b5972d58c5b4a4fe788630eed26b6a4bb36e274e4e7a7364736f6c63430008080033",
  "devdoc": {
    "kind": "dev",
    "methods": {
      "approve(address,uint256)": {
        "details": "See {IERC721-approve}."
      },
      "balanceOf(address)": {
        "details": "See {IERC721-balanceOf}."
      },
      "getApproved(uint256)": {
        "details": "See {IERC721-getApproved}."
      },
      "isApprovedForAll(address,address)": {
        "details": "See {IERC721-isApprovedForAll}."
      },
      "name()": {
        "details": "See {IERC721Metadata-name}."
      },
      "ownerOf(uint256)": {
        "details": "See {IERC721-ownerOf}."
      },
      "performUpkeep(bytes)": {
        "details": "The input to this method should not be trusted, and the caller of the method should not even be restricted to any single registry. Anyone should be able call it, and the input should be validated, there is no guarantee that the data passed in is the performData returned from checkUpkeep. This could happen due to malicious keepers, racing keepers, or simply a state change while the performUpkeep transaction is waiting for confirmation. Always validate the data passed in.",
        "params": {
          "performData": "is the data which was passed back from the checkData simulation. If it is encoded, it can easily be decoded into other types by calling `abi.decode`. This data should not be trusted, and should be validated against the contract's current state."
        }
      },
      "safeTransferFrom(address,address,uint256)": {
        "details": "See {IERC721-safeTransferFrom}."
      },
      "safeTransferFrom(address,address,uint256,bytes)": {
        "details": "See {IERC721-safeTransferFrom}."
      },
      "setApprovalForAll(address,bool)": {
        "details": "See {IERC721-setApprovalForAll}."
      },
      "supportsInterface(bytes4)": {
        "details": "See {IERC165-supportsInterface}."
      },
      "symbol()": {
        "details": "See {IERC721Metadata-symbol}."
      },
      "tokenURI(uint256)": {
        "details": "See {IERC721Metadata-tokenURI}."
      },
      "transferFrom(address,address,uint256)": {
        "details": "See {IERC721-transferFrom}."
      }
    },
    "version": 1
  },
  "userdoc": {
    "kind": "user",
    "methods": {
      "performUpkeep(bytes)": {
        "notice": "method that is actually executed by the keepers, via the registry. The data returned by the checkUpkeep simulation will be passed into this method to actually be executed."
      }
    },
    "version": 1
  },
  "storageLayout": {
    "storage": [
      {
        "astId": 83,
        "contract": "contracts/Marketplace.sol:Marketplace",
        "label": "_name",
        "offset": 0,
        "slot": "0",
        "type": "t_string_storage"
      },
      {
        "astId": 85,
        "contract": "contracts/Marketplace.sol:Marketplace",
        "label": "_symbol",
        "offset": 0,
        "slot": "1",
        "type": "t_string_storage"
      },
      {
        "astId": 89,
        "contract": "contracts/Marketplace.sol:Marketplace",
        "label": "_owners",
        "offset": 0,
        "slot": "2",
        "type": "t_mapping(t_uint256,t_address)"
      },
      {
        "astId": 93,
        "contract": "contracts/Marketplace.sol:Marketplace",
        "label": "_balances",
        "offset": 0,
        "slot": "3",
        "type": "t_mapping(t_address,t_uint256)"
      },
      {
        "astId": 97,
        "contract": "contracts/Marketplace.sol:Marketplace",
        "label": "_tokenApprovals",
        "offset": 0,
        "slot": "4",
        "type": "t_mapping(t_uint256,t_address)"
      },
      {
        "astId": 103,
        "contract": "contracts/Marketplace.sol:Marketplace",
        "label": "_operatorApprovals",
        "offset": 0,
        "slot": "5",
        "type": "t_mapping(t_address,t_mapping(t_address,t_bool))"
      },
      {
        "astId": 1149,
        "contract": "contracts/Marketplace.sol:Marketplace",
        "label": "_tokenURIs",
        "offset": 0,
        "slot": "6",
        "type": "t_mapping(t_uint256,t_string_storage)"
      },
      {
        "astId": 2796,
        "contract": "contracts/Marketplace.sol:Marketplace",
        "label": "_tokenId",
        "offset": 0,
        "slot": "7",
        "type": "t_uint256"
      },
      {
        "astId": 2800,
        "contract": "contracts/Marketplace.sol:Marketplace",
        "label": "items",
        "offset": 0,
        "slot": "8",
        "type": "t_array(t_struct(Item)2789_storage)dyn_storage"
      },
      {
        "astId": 2804,
        "contract": "contracts/Marketplace.sol:Marketplace",
        "label": "itemsCount",
        "offset": 0,
        "slot": "9",
        "type": "t_mapping(t_address,t_uint256)"
      },
      {
        "astId": 2810,
        "contract": "contracts/Marketplace.sol:Marketplace",
        "label": "bidders",
        "offset": 0,
        "slot": "10",
        "type": "t_mapping(t_uint256,t_array(t_struct(Bidder)2794_storage)dyn_storage)"
      },
      {
        "astId": 2814,
        "contract": "contracts/Marketplace.sol:Marketplace",
        "label": "proceeds",
        "offset": 0,
        "slot": "11",
        "type": "t_mapping(t_address,t_uint256)"
      }
    ],
    "types": {
      "t_address": {
        "encoding": "inplace",
        "label": "address",
        "numberOfBytes": "20"
      },
      "t_array(t_struct(Bidder)2794_storage)dyn_storage": {
        "base": "t_struct(Bidder)2794_storage",
        "encoding": "dynamic_array",
        "label": "struct Marketplace.Bidder[]",
        "numberOfBytes": "32"
      },
      "t_array(t_struct(Item)2789_storage)dyn_storage": {
        "base": "t_struct(Item)2789_storage",
        "encoding": "dynamic_array",
        "label": "struct Marketplace.Item[]",
        "numberOfBytes": "32"
      },
      "t_bool": {
        "encoding": "inplace",
        "label": "bool",
        "numberOfBytes": "1"
      },
      "t_mapping(t_address,t_bool)": {
        "encoding": "mapping",
        "key": "t_address",
        "label": "mapping(address => bool)",
        "numberOfBytes": "32",
        "value": "t_bool"
      },
      "t_mapping(t_address,t_mapping(t_address,t_bool))": {
        "encoding": "mapping",
        "key": "t_address",
        "label": "mapping(address => mapping(address => bool))",
        "numberOfBytes": "32",
        "value": "t_mapping(t_address,t_bool)"
      },
      "t_mapping(t_address,t_uint256)": {
        "encoding": "mapping",
        "key": "t_address",
        "label": "mapping(address => uint256)",
        "numberOfBytes": "32",
        "value": "t_uint256"
      },
      "t_mapping(t_uint256,t_address)": {
        "encoding": "mapping",
        "key": "t_uint256",
        "label": "mapping(uint256 => address)",
        "numberOfBytes": "32",
        "value": "t_address"
      },
      "t_mapping(t_uint256,t_array(t_struct(Bidder)2794_storage)dyn_storage)": {
        "encoding": "mapping",
        "key": "t_uint256",
        "label": "mapping(uint256 => struct Marketplace.Bidder[])",
        "numberOfBytes": "32",
        "value": "t_array(t_struct(Bidder)2794_storage)dyn_storage"
      },
      "t_mapping(t_uint256,t_string_storage)": {
        "encoding": "mapping",
        "key": "t_uint256",
        "label": "mapping(uint256 => string)",
        "numberOfBytes": "32",
        "value": "t_string_storage"
      },
      "t_string_storage": {
        "encoding": "bytes",
        "label": "string",
        "numberOfBytes": "32"
      },
      "t_struct(Bidder)2794_storage": {
        "encoding": "inplace",
        "label": "struct Marketplace.Bidder",
        "members": [
          {
            "astId": 2791,
            "contract": "contracts/Marketplace.sol:Marketplace",
            "label": "bidderAddress",
            "offset": 0,
            "slot": "0",
            "type": "t_address"
          },
          {
            "astId": 2793,
            "contract": "contracts/Marketplace.sol:Marketplace",
            "label": "bid",
            "offset": 0,
            "slot": "1",
            "type": "t_uint256"
          }
        ],
        "numberOfBytes": "64"
      },
      "t_struct(Item)2789_storage": {
        "encoding": "inplace",
        "label": "struct Marketplace.Item",
        "members": [
          {
            "astId": 2778,
            "contract": "contracts/Marketplace.sol:Marketplace",
            "label": "status",
            "offset": 0,
            "slot": "0",
            "type": "t_string_storage"
          },
          {
            "astId": 2780,
            "contract": "contracts/Marketplace.sol:Marketplace",
            "label": "tokenId",
            "offset": 0,
            "slot": "1",
            "type": "t_uint256"
          },
          {
            "astId": 2782,
            "contract": "contracts/Marketplace.sol:Marketplace",
            "label": "owner",
            "offset": 0,
            "slot": "2",
            "type": "t_address"
          },
          {
            "astId": 2784,
            "contract": "contracts/Marketplace.sol:Marketplace",
            "label": "listingPrice",
            "offset": 0,
            "slot": "3",
            "type": "t_uint256"
          },
          {
            "astId": 2786,
            "contract": "contracts/Marketplace.sol:Marketplace",
            "label": "basePrice",
            "offset": 0,
            "slot": "4",
            "type": "t_uint256"
          },
          {
            "astId": 2788,
            "contract": "contracts/Marketplace.sol:Marketplace",
            "label": "endTime",
            "offset": 0,
            "slot": "5",
            "type": "t_uint256"
          }
        ],
        "numberOfBytes": "192"
      },
      "t_uint256": {
        "encoding": "inplace",
        "label": "uint256",
        "numberOfBytes": "32"
      }
    }
  }
}